{
  "contractName": "CompoundFacade",
  "abi": [
    {
      "inputs": [
        {
          "internalType": "address payable",
          "name": "_owner",
          "type": "address"
        },
        {
          "internalType": "address",
          "name": "_underlyingAsset",
          "type": "address"
        },
        {
          "internalType": "address",
          "name": "_mintingAsset",
          "type": "address"
        }
      ],
      "stateMutability": "nonpayable",
      "type": "constructor"
    },
    {
      "anonymous": false,
      "inputs": [
        {
          "indexed": true,
          "internalType": "address",
          "name": "facade",
          "type": "address"
        },
        {
          "indexed": true,
          "internalType": "address",
          "name": "depositor",
          "type": "address"
        }
      ],
      "name": "LogDeposit",
      "type": "event"
    },
    {
      "anonymous": false,
      "inputs": [
        {
          "indexed": true,
          "internalType": "address",
          "name": "facade",
          "type": "address"
        }
      ],
      "name": "LogWithdraw",
      "type": "event"
    },
    {
      "inputs": [],
      "name": "assistant",
      "outputs": [
        {
          "internalType": "address",
          "name": "",
          "type": "address"
        }
      ],
      "stateMutability": "view",
      "type": "function"
    },
    {
      "inputs": [],
      "name": "mintingAsset",
      "outputs": [
        {
          "internalType": "contract ERC20",
          "name": "",
          "type": "address"
        }
      ],
      "stateMutability": "view",
      "type": "function"
    },
    {
      "inputs": [],
      "name": "owner",
      "outputs": [
        {
          "internalType": "address payable",
          "name": "",
          "type": "address"
        }
      ],
      "stateMutability": "view",
      "type": "function"
    },
    {
      "inputs": [],
      "name": "underlyingAsset",
      "outputs": [
        {
          "internalType": "contract ERC20",
          "name": "",
          "type": "address"
        }
      ],
      "stateMutability": "view",
      "type": "function"
    },
    {
      "inputs": [],
      "name": "depositToUnderlying",
      "outputs": [],
      "stateMutability": "nonpayable",
      "type": "function"
    },
    {
      "inputs": [],
      "name": "withdraw",
      "outputs": [],
      "stateMutability": "nonpayable",
      "type": "function"
    },
    {
      "inputs": [],
      "name": "destroy",
      "outputs": [],
      "stateMutability": "nonpayable",
      "type": "function"
    },
    {
      "inputs": [],
      "name": "underlyingBalance",
      "outputs": [
        {
          "internalType": "uint256",
          "name": "",
          "type": "uint256"
        }
      ],
      "stateMutability": "view",
      "type": "function"
    },
    {
      "inputs": [],
      "name": "mintedBalance",
      "outputs": [
        {
          "internalType": "uint256",
          "name": "",
          "type": "uint256"
        }
      ],
      "stateMutability": "view",
      "type": "function"
    },
    {
      "inputs": [],
      "name": "underlyingAssetSymbol",
      "outputs": [
        {
          "internalType": "string",
          "name": "",
          "type": "string"
        }
      ],
      "stateMutability": "view",
      "type": "function"
    },
    {
      "inputs": [],
      "name": "mintedAssetSymbol",
      "outputs": [
        {
          "internalType": "string",
          "name": "",
          "type": "string"
        }
      ],
      "stateMutability": "view",
      "type": "function"
    }
  ],
  "bytecode": "0x608060405234801561001057600080fd5b5060405161130a38038061130a8339818101604052606081101561003357600080fd5b81019080805190602001909291908051906020019092919080519060200190929190505050826000806101000a81548173ffffffffffffffffffffffffffffffffffffffff021916908373ffffffffffffffffffffffffffffffffffffffff16021790555033600160006101000a81548173ffffffffffffffffffffffffffffffffffffffff021916908373ffffffffffffffffffffffffffffffffffffffff16021790555081600260006101000a81548173ffffffffffffffffffffffffffffffffffffffff021916908373ffffffffffffffffffffffffffffffffffffffff16021790555080600360006101000a81548173ffffffffffffffffffffffffffffffffffffffff021916908373ffffffffffffffffffffffffffffffffffffffff160217905550600260009054906101000a900473ffffffffffffffffffffffffffffffffffffffff1673ffffffffffffffffffffffffffffffffffffffff1663095ea7b3600360009054906101000a900473ffffffffffffffffffffffffffffffffffffffff167fffffffffffffffffffffffffffffffffffffffffffffffffffffffffffffffff6040518363ffffffff1660e01b8152600401808373ffffffffffffffffffffffffffffffffffffffff16815260200182815260200192505050602060405180830381600087803b15801561023057600080fd5b505af1158015610244573d6000803e3d6000fd5b505050506040513d602081101561025a57600080fd5b81019080805190602001909291905050505050505061108c8061027e6000396000f3fe608060405234801561001057600080fd5b50600436106100a95760003560e01c806359356c5c1161007157806359356c5c146101ad5780637158da7c146101cb57806383197ef0146101ff5780638da5cb5b14610209578063906a3dd01461023d578063ad7b68fe146102c0576100a9565b806302248209146100ae5780632569cd6c146100b857806333340e8e146100ec5780633ccfd60b1461016f57806350906f2a14610179575b600080fd5b6100b66102de565b005b6100c061057b565b604051808273ffffffffffffffffffffffffffffffffffffffff16815260200191505060405180910390f35b6100f46105a1565b6040518080602001828103825283818151815260200191508051906020019080838360005b83811015610134578082015181840152602081019050610119565b50505050905090810190601f1680156101615780820380516001836020036101000a031916815260200191505b509250505060405180910390f35b610177610709565b005b610181610bf7565b604051808273ffffffffffffffffffffffffffffffffffffffff16815260200191505060405180910390f35b6101b5610c1d565b6040518082815260200191505060405180910390f35b6101d3610ce8565b604051808273ffffffffffffffffffffffffffffffffffffffff16815260200191505060405180910390f35b610207610d0e565b005b610211610dff565b604051808273ffffffffffffffffffffffffffffffffffffffff16815260200191505060405180910390f35b610245610e23565b6040518080602001828103825283818151815260200191508051906020019080838360005b8381101561028557808201518184015260208101905061026a565b50505050905090810190601f1680156102b25780820380516001836020036101000a031916815260200191505b509250505060405180910390f35b6102c8610f8b565b6040518082815260200191505060405180910390f35b6000600260009054906101000a900473ffffffffffffffffffffffffffffffffffffffff1673ffffffffffffffffffffffffffffffffffffffff166370a08231306040518263ffffffff1660e01b8152600401808273ffffffffffffffffffffffffffffffffffffffff16815260200191505060206040518083038186803b15801561036957600080fd5b505afa15801561037d573d6000803e3d6000fd5b505050506040513d602081101561039357600080fd5b81019080805190602001909291905050509050606081604051602401808281526020019150506040516020818303038152906040527fa0712d68000000000000000000000000000000000000000000000000000000007bffffffffffffffffffffffffffffffffffffffffffffffffffffffff19166020820180517bffffffffffffffffffffffffffffffffffffffffffffffffffffffff838183161783525050505090506000600360009054906101000a900473ffffffffffffffffffffffffffffffffffffffff1673ffffffffffffffffffffffffffffffffffffffff16826040518082805190602001908083835b602083106104a75780518252602082019150602081019050602083039250610484565b6001836020036101000a0380198251168184511680821785525050505050509050019150506000604051808303816000865af19150503d8060008114610509576040519150601f19603f3d011682016040523d82523d6000602084013e61050e565b606091505b505090508061051c57600080fd5b3373ffffffffffffffffffffffffffffffffffffffff163073ffffffffffffffffffffffffffffffffffffffff167febfb0d0230732d2051fdbe3e95732ec7730ffa637c3985d7ccccd459555941a360405160405180910390a3505050565b600160009054906101000a900473ffffffffffffffffffffffffffffffffffffffff1681565b6060600260009054906101000a900473ffffffffffffffffffffffffffffffffffffffff1673ffffffffffffffffffffffffffffffffffffffff166395d89b416040518163ffffffff1660e01b815260040160006040518083038186803b15801561060b57600080fd5b505afa15801561061f573d6000803e3d6000fd5b505050506040513d6000823e3d601f19601f82011682018060405250602081101561064957600080fd5b810190808051604051939291908464010000000082111561066957600080fd5b8382019150602082018581111561067f57600080fd5b825186600182028301116401000000008211171561069c57600080fd5b8083526020830192505050908051906020019080838360005b838110156106d05780820151818401526020810190506106b5565b50505050905090810190601f1680156106fd5780820380516001836020036101000a031916815260200191505b50604052505050905090565b60008054906101000a900473ffffffffffffffffffffffffffffffffffffffff1673ffffffffffffffffffffffffffffffffffffffff163373ffffffffffffffffffffffffffffffffffffffff1614806107b05750600160009054906101000a900473ffffffffffffffffffffffffffffffffffffffff1673ffffffffffffffffffffffffffffffffffffffff163373ffffffffffffffffffffffffffffffffffffffff16145b6107b957600080fd5b6000600360009054906101000a900473ffffffffffffffffffffffffffffffffffffffff1673ffffffffffffffffffffffffffffffffffffffff166370a08231306040518263ffffffff1660e01b8152600401808273ffffffffffffffffffffffffffffffffffffffff16815260200191505060206040518083038186803b15801561084457600080fd5b505afa158015610858573d6000803e3d6000fd5b505050506040513d602081101561086e57600080fd5b81019080805190602001909291905050509050606081604051602401808281526020019150506040516020818303038152906040527fdb006a75000000000000000000000000000000000000000000000000000000007bffffffffffffffffffffffffffffffffffffffffffffffffffffffff19166020820180517bffffffffffffffffffffffffffffffffffffffffffffffffffffffff838183161783525050505090506000600360009054906101000a900473ffffffffffffffffffffffffffffffffffffffff1673ffffffffffffffffffffffffffffffffffffffff16826040518082805190602001908083835b60208310610982578051825260208201915060208101905060208303925061095f565b6001836020036101000a0380198251168184511680821785525050505050509050019150506000604051808303816000865af19150503d80600081146109e4576040519150601f19603f3d011682016040523d82523d6000602084013e6109e9565b606091505b50509050806109f757600080fd5b6000600260009054906101000a900473ffffffffffffffffffffffffffffffffffffffff1673ffffffffffffffffffffffffffffffffffffffff166370a08231306040518263ffffffff1660e01b8152600401808273ffffffffffffffffffffffffffffffffffffffff16815260200191505060206040518083038186803b158015610a8257600080fd5b505afa158015610a96573d6000803e3d6000fd5b505050506040513d6020811015610aac57600080fd5b81019080805190602001909291905050509050600260009054906101000a900473ffffffffffffffffffffffffffffffffffffffff1673ffffffffffffffffffffffffffffffffffffffff1663a9059cbb60008054906101000a900473ffffffffffffffffffffffffffffffffffffffff16836040518363ffffffff1660e01b8152600401808373ffffffffffffffffffffffffffffffffffffffff16815260200182815260200192505050602060405180830381600087803b158015610b7257600080fd5b505af1158015610b86573d6000803e3d6000fd5b505050506040513d6020811015610b9c57600080fd5b8101908080519060200190929190505050503073ffffffffffffffffffffffffffffffffffffffff167faf66eb1ff59a99165e990351acac53ab2fbc78bf79381392dd75b57ed2b8c40c60405160405180910390a250505050565b600360009054906101000a900473ffffffffffffffffffffffffffffffffffffffff1681565b6000600260009054906101000a900473ffffffffffffffffffffffffffffffffffffffff1673ffffffffffffffffffffffffffffffffffffffff166370a08231306040518263ffffffff1660e01b8152600401808273ffffffffffffffffffffffffffffffffffffffff16815260200191505060206040518083038186803b158015610ca857600080fd5b505afa158015610cbc573d6000803e3d6000fd5b505050506040513d6020811015610cd257600080fd5b8101908080519060200190929190505050905090565b600260009054906101000a900473ffffffffffffffffffffffffffffffffffffffff1681565b60008054906101000a900473ffffffffffffffffffffffffffffffffffffffff1673ffffffffffffffffffffffffffffffffffffffff163373ffffffffffffffffffffffffffffffffffffffff161480610db55750600160009054906101000a900473ffffffffffffffffffffffffffffffffffffffff1673ffffffffffffffffffffffffffffffffffffffff163373ffffffffffffffffffffffffffffffffffffffff16145b610dbe57600080fd5b610dc6610709565b60008054906101000a900473ffffffffffffffffffffffffffffffffffffffff1673ffffffffffffffffffffffffffffffffffffffff16ff5b60008054906101000a900473ffffffffffffffffffffffffffffffffffffffff1681565b6060600360009054906101000a900473ffffffffffffffffffffffffffffffffffffffff1673ffffffffffffffffffffffffffffffffffffffff166395d89b416040518163ffffffff1660e01b815260040160006040518083038186803b158015610e8d57600080fd5b505afa158015610ea1573d6000803e3d6000fd5b505050506040513d6000823e3d601f19601f820116820180604052506020811015610ecb57600080fd5b8101908080516040519392919084640100000000821115610eeb57600080fd5b83820191506020820185811115610f0157600080fd5b8251866001820283011164010000000082111715610f1e57600080fd5b8083526020830192505050908051906020019080838360005b83811015610f52578082015181840152602081019050610f37565b50505050905090810190601f168015610f7f5780820380516001836020036101000a031916815260200191505b50604052505050905090565b6000600360009054906101000a900473ffffffffffffffffffffffffffffffffffffffff1673ffffffffffffffffffffffffffffffffffffffff166370a08231306040518263ffffffff1660e01b8152600401808273ffffffffffffffffffffffffffffffffffffffff16815260200191505060206040518083038186803b15801561101657600080fd5b505afa15801561102a573d6000803e3d6000fd5b505050506040513d602081101561104057600080fd5b810190808051906020019092919050505090509056fea26469706673582212204fa428026f7ecce8d95f01ab321cd7e2efa1af48e91e0d2cc491ee943a9eab3764736f6c63430007010033",
  "immutableReferences": {},
  "source": "// SPDX-License-Identifier: MIT\npragma solidity ^0.7.0;\n\nimport '../ERC20/IERC20.sol';\nimport './FacadeInterface.sol';\n\n/// @title A compound.finance facade implementation\n/// @author Joel Reis\n/// @notice Interfaces directly with compound.finance\n/// @dev This can be used as an example for generating other DeFi facade interfaces\ncontract CompoundFacade is Facade {\n    // This is the max value for a uint256\n    uint256 constant MAX_INT = 2**256 - 1;\n    \n    /// @notice The owner of this contract\n    /// @dev The owner of this contract, set from deployer and unchangable\n    /// @return The address with the most authority on this contract\n    address payable public owner;\n    \n    /// @notice Returns an address that is allowed to assist in certain functions to help with automation\n    ///         This address never has full control over funds\n    ///         e.g. sending funds back to `owner`'s wallet.\n    /// @dev Returns the pre-defined, unedited assistant\n    /// @return Assistant hich is permissioned to call specific functions\n    address public assistant;\n    \n    /// @notice Returns the underlying token\n    ///         e.g. USDC address\n    /// @dev Returns an ERC20 token that is used to deposit into Compound\n    /// @return The underlying token used\n    ERC20 public underlyingAsset;\n    \n    /// @notice Returns the address of the token being minted\n    ///         e.g. cUSDC address\n    /// @dev Returns an ERC20 token that is minted from Compound\n    /// @return The token that a specific DeFi protocols mints\n    ERC20 public mintingAsset;\n    \n    // Modifiers\n    \n    /// @notice Checks to make sure only the contract owner (deployer) can call a specific function\n    /// @dev The contract deployer has certain elevated permissions, which can be checked here.\n    modifier isOwner() {\n        require(msg.sender == owner, \"Caller is not owner\");\n        _;\n    }\n    \n    /// @notice Checks to make sure the caller is friendly and is approved by owner to perform actions\n    /// @dev Certain permissions require either the owner or assistant to perform them. This checks those roles.\n    modifier isFriendly() {\n        require(msg.sender == owner || msg.sender == assistant);\n        _;\n    }\n    \n    /// @notice Constructor for a new `CompoundFacade` deployment\n    /// @dev Deploys a new `Facade` that interfaces directly against the Compound protocol\n    /// @param _owner The address of who should own this contract\n    /// @param _underlyingAsset The address of the underlying asset (e.g. `USDC`)\n    /// @param _mintingAsset The address of the token that Compound will mint, based on the underlying token (e.g. `cUSDC`)\n    constructor(address payable _owner, address _underlyingAsset, address _mintingAsset) {\n        owner = _owner;\n        assistant = msg.sender;\n        \n        underlyingAsset = ERC20(_underlyingAsset);\n        mintingAsset = ERC20(_mintingAsset);\n        \n        // This approves the contract (e.g. compound) to withdraw funds from the smart contract account\n        underlyingAsset.approve(address(mintingAsset), MAX_INT);\n    }\n    \n    /// This deposits funds into the underlying contract\n    /// @inheritdoc Facade\n    function depositToUnderlying() override external {\n        uint256 fullBalance = underlyingAsset.balanceOf(address(this));\n        \n        // TODO: Enable reward!\n        \n        bytes memory payload = abi.encodeWithSignature(\"mint(uint256)\", fullBalance);\n        (bool success,) = address(mintingAsset).call(payload);\n        require(success);\n        emit LogDeposit(address(this), msg.sender);\n    }\n    \n    /// Withdraws all user funds, is protected\n    /// @inheritdoc Facade\n    function withdraw() override public isFriendly {\n        // Pull assets out of Compound\n        uint256 fullBalance = mintingAsset.balanceOf(address(this));\n        bytes memory payload = abi.encodeWithSignature(\"redeem(uint256)\", fullBalance);\n        (bool success,) = address(mintingAsset).call(payload);\n        require(success);\n        \n        // Actual, direct transfer to user wallet\n        uint256 allUSDC = underlyingAsset.balanceOf(address(this));\n        underlyingAsset.transfer(owner, allUSDC);\n\n        emit LogWithdraw(address(this));\n    }\n    \n    /// Destroys a given `Facade`, is protected\n    /// @inheritdoc Facade\n    function destroy() override external isFriendly {\n        // Secure all ERC20 funds\n        withdraw();\n        \n        // Should be no ETH in contract\n        selfdestruct(owner);\n    }\n\n    ////// Convenience functions that forward to the underlying contract\n\n    /// This is available directly on the asset address, but is added for convenience\n    /// @inheritdoc Facade\n    function underlyingBalance() override external view returns(uint256) {\n      return underlyingAsset.balanceOf(address(this));\n    }\n    \n    /// This is available directly on the asset address, but is added for convenience\n    /// @inheritdoc Facade\n    function mintedBalance() override external view returns(uint256) {\n      return mintingAsset.balanceOf(address(this));\n    }\n    \n    /// This is available directly on the asset address, but is added for convenience\n    /// @inheritdoc Facade\n    function underlyingAssetSymbol() override external view returns(string memory) {\n        return underlyingAsset.symbol();\n    }\n    \n    /// This is available directly on the asset address, but is added for convenience\n    /// @inheritdoc Facade\n    function mintedAssetSymbol() override external view returns(string memory) {\n        return mintingAsset.symbol();\n    }\n    \n}",
  "sourcePath": "/Users/metroid/Development/Block/Final_Project/contracts/Facades/CompoundFacade.sol",
  "compiler": {
    "name": "solc",
    "version": "0.7.1+commit.f4a555be.Emscripten.clang"
  },
  "schemaVersion": "3.2.3",
  "updatedAt": "2020-12-14T20:12:55.992Z",
  "devdoc": {
    "author": "Joel Reis",
    "details": "This can be used as an example for generating other DeFi facade interfaces",
    "kind": "dev",
    "methods": {
      "constructor": {
        "details": "Deploys a new `Facade` that interfaces directly against the Compound protocol",
        "params": {
          "_mintingAsset": "The address of the token that Compound will mint, based on the underlying token (e.g. `cUSDC`)",
          "_owner": "The address of who should own this contract",
          "_underlyingAsset": "The address of the underlying asset (e.g. `USDC`)"
        }
      },
      "depositToUnderlying()": {
        "details": "Deposits the asset associated with the asset pair"
      },
      "destroy()": {
        "details": "This should be a protected function to prevent abuse of withdrawing      Withdrawing should always deposit funds back to the `owner`"
      },
      "mintedAssetSymbol()": {
        "details": "Should forward requests to the minting token",
        "returns": {
          "_0": "The symbol for the minted token that is available for withdrawing"
        }
      },
      "mintedBalance()": {
        "details": "Should forward requests to the minting token e.g. cUSDC, cDAI",
        "returns": {
          "_0": "The amount of the minted balance that is available for withdrawing"
        }
      },
      "underlyingAssetSymbol()": {
        "details": "Should forward requests to the underlying token",
        "returns": {
          "_0": "The symbol for the underlying token that is available for deposit"
        }
      },
      "underlyingBalance()": {
        "details": "Should forward requests to the underlying token",
        "returns": {
          "_0": "The amount of the underlying token that is available for deposit"
        }
      },
      "withdraw()": {
        "details": "This should be a protected function to prevent abuse of withdrawing      Withdrawing should always deposit funds back to the `owner`"
      }
    },
    "stateVariables": {
      "assistant": {
        "details": "Returns the pre-defined, unedited assistant",
        "return": "Assistant hich is permissioned to call specific functions"
      },
      "mintingAsset": {
        "details": "Returns an ERC20 token that is minted from Compound",
        "return": "The token that a specific DeFi protocols mints"
      },
      "owner": {
        "details": "The owner of this contract, set from deployer and unchangable",
        "return": "The address with the most authority on this contract"
      },
      "underlyingAsset": {
        "details": "Returns an ERC20 token that is used to deposit into Compound",
        "return": "The underlying token used"
      }
    },
    "title": "A compound.finance facade implementation",
    "version": 1
  },
  "userdoc": {
    "events": {
      "LogDeposit(address,address)": {
        "notice": "An event used to communicate that a \"Deposit\" was performed"
      },
      "LogWithdraw(address)": {
        "notice": "An event used to communicate a \"Withdrawal\" was performed"
      }
    },
    "kind": "user",
    "methods": {
      "assistant()": {
        "notice": "Returns an address that is allowed to assist in certain functions to help with automation         This address never has full control over funds         e.g. sending funds back to `owner`'s wallet."
      },
      "constructor": {
        "notice": "Constructor for a new `CompoundFacade` deployment"
      },
      "depositToUnderlying()": {
        "notice": "This deposits funds into the underlying contract"
      },
      "destroy()": {
        "notice": "Destroys a given `Facade`, is protected"
      },
      "mintedAssetSymbol()": {
        "notice": "This is available directly on the asset address, but is added for convenience"
      },
      "mintedBalance()": {
        "notice": "This is available directly on the asset address, but is added for convenience"
      },
      "mintingAsset()": {
        "notice": "Returns the address of the token being minted         e.g. cUSDC address"
      },
      "owner()": {
        "notice": "The owner of this contract"
      },
      "underlyingAsset()": {
        "notice": "Returns the underlying token         e.g. USDC address"
      },
      "underlyingAssetSymbol()": {
        "notice": "This is available directly on the asset address, but is added for convenience"
      },
      "underlyingBalance()": {
        "notice": "This is available directly on the asset address, but is added for convenience"
      },
      "withdraw()": {
        "notice": "Withdraws all user funds, is protected"
      }
    },
    "notice": "Interfaces directly with compound.finance",
    "version": 1
  }
}