{
  "contractName": "Generator",
  "abi": [
    {
      "inputs": [],
      "stateMutability": "nonpayable",
      "type": "constructor"
    },
    {
      "anonymous": false,
      "inputs": [
        {
          "indexed": true,
          "internalType": "address",
          "name": "creator",
          "type": "address"
        },
        {
          "indexed": false,
          "internalType": "uint256",
          "name": "integrationIndex",
          "type": "uint256"
        },
        {
          "indexed": false,
          "internalType": "uint256",
          "name": "pairIndex",
          "type": "uint256"
        }
      ],
      "name": "LogFacadeCreated",
      "type": "event"
    },
    {
      "anonymous": false,
      "inputs": [
        {
          "indexed": true,
          "internalType": "address",
          "name": "destroyer",
          "type": "address"
        }
      ],
      "name": "LogFacadeDestroyed",
      "type": "event"
    },
    {
      "anonymous": false,
      "inputs": [
        {
          "indexed": false,
          "internalType": "address",
          "name": "integrationAddress",
          "type": "address"
        },
        {
          "indexed": false,
          "internalType": "uint256",
          "name": "integrationIndex",
          "type": "uint256"
        }
      ],
      "name": "LogNewProtocolAdded",
      "type": "event"
    },
    {
      "inputs": [
        {
          "internalType": "uint256",
          "name": "",
          "type": "uint256"
        }
      ],
      "name": "availableProtocols",
      "outputs": [
        {
          "internalType": "contract Integration",
          "name": "",
          "type": "address"
        }
      ],
      "stateMutability": "view",
      "type": "function",
      "constant": true
    },
    {
      "inputs": [
        {
          "internalType": "uint256",
          "name": "",
          "type": "uint256"
        }
      ],
      "name": "facadeEnabled",
      "outputs": [
        {
          "internalType": "bool",
          "name": "",
          "type": "bool"
        }
      ],
      "stateMutability": "view",
      "type": "function",
      "constant": true
    },
    {
      "inputs": [
        {
          "internalType": "uint256",
          "name": "",
          "type": "uint256"
        }
      ],
      "name": "facadeOwners",
      "outputs": [
        {
          "internalType": "address",
          "name": "",
          "type": "address"
        }
      ],
      "stateMutability": "view",
      "type": "function",
      "constant": true
    },
    {
      "inputs": [
        {
          "internalType": "address",
          "name": "",
          "type": "address"
        }
      ],
      "name": "facades",
      "outputs": [
        {
          "internalType": "contract Facade",
          "name": "",
          "type": "address"
        }
      ],
      "stateMutability": "view",
      "type": "function",
      "constant": true
    },
    {
      "inputs": [],
      "name": "owner",
      "outputs": [
        {
          "internalType": "address",
          "name": "",
          "type": "address"
        }
      ],
      "stateMutability": "view",
      "type": "function",
      "constant": true
    },
    {
      "inputs": [
        {
          "internalType": "address",
          "name": "newIntegration",
          "type": "address"
        }
      ],
      "name": "addNewProtocol",
      "outputs": [
        {
          "internalType": "uint256",
          "name": "",
          "type": "uint256"
        }
      ],
      "stateMutability": "nonpayable",
      "type": "function"
    },
    {
      "inputs": [
        {
          "internalType": "uint256",
          "name": "integrationIndex",
          "type": "uint256"
        },
        {
          "internalType": "uint256",
          "name": "pairIndex",
          "type": "uint256"
        }
      ],
      "name": "generateNewFacade",
      "outputs": [
        {
          "internalType": "contract Facade",
          "name": "",
          "type": "address"
        }
      ],
      "stateMutability": "nonpayable",
      "type": "function"
    },
    {
      "inputs": [],
      "name": "destroyFacade",
      "outputs": [],
      "stateMutability": "nonpayable",
      "type": "function"
    },
    {
      "inputs": [
        {
          "internalType": "uint256",
          "name": "facadeIndex",
          "type": "uint256"
        },
        {
          "internalType": "bool",
          "name": "enabled",
          "type": "bool"
        }
      ],
      "name": "setEnabled",
      "outputs": [],
      "stateMutability": "nonpayable",
      "type": "function"
    },
    {
      "inputs": [],
      "name": "numberOfOwners",
      "outputs": [
        {
          "internalType": "uint256",
          "name": "",
          "type": "uint256"
        }
      ],
      "stateMutability": "view",
      "type": "function",
      "constant": true
    }
  ],
  "bytecode": "0x608060405234801561001057600080fd5b50336000806101000a81548173ffffffffffffffffffffffffffffffffffffffff021916908373ffffffffffffffffffffffffffffffffffffffff160217905550610cb5806100606000396000f3fe608060405234801561001057600080fd5b506004361061009e5760003560e01c8063b0e1bd3011610066578063b0e1bd3014610207578063b2d4a57414610211578063e5c13dd114610255578063ed73ab9c1461028f578063f6fef21e146102fd5761009e565b806332194042146100a35780634015510f146100fb5780634da7eed1146101535780638da5cb5b146101b557806393fd1844146101e9575b600080fd5b6100e5600480360360208110156100b957600080fd5b81019080803573ffffffffffffffffffffffffffffffffffffffff169060200190929190505050610355565b6040518082815260200191505060405180910390f35b6101276004803603602081101561011157600080fd5b8101908080359060200190929190505050610531565b604051808273ffffffffffffffffffffffffffffffffffffffff16815260200191505060405180910390f35b6101896004803603604081101561016957600080fd5b81019080803590602001909291908035906020019092919050505061056d565b604051808273ffffffffffffffffffffffffffffffffffffffff16815260200191505060405180910390f35b6101bd6108fd565b604051808273ffffffffffffffffffffffffffffffffffffffff16815260200191505060405180910390f35b6101f1610921565b6040518082815260200191505060405180910390f35b61020f61092e565b005b61023d6004803603602081101561022757600080fd5b8101908080359060200190929190505050610a94565b60405180821515815260200191505060405180910390f35b61028d6004803603604081101561026b57600080fd5b8101908080359060200190929190803515159060200190929190505050610ac5565b005b6102d1600480360360208110156102a557600080fd5b81019080803573ffffffffffffffffffffffffffffffffffffffff169060200190929190505050610bc1565b604051808273ffffffffffffffffffffffffffffffffffffffff16815260200191505060405180910390f35b6103296004803603602081101561031357600080fd5b8101908080359060200190929190505050610bf4565b604051808273ffffffffffffffffffffffffffffffffffffffff16815260200191505060405180910390f35b60008060009054906101000a900473ffffffffffffffffffffffffffffffffffffffff1673ffffffffffffffffffffffffffffffffffffffff163373ffffffffffffffffffffffffffffffffffffffff1614610419576040517f08c379a000000000000000000000000000000000000000000000000000000000815260040180806020018281038252600e8152602001807f4d757374206265206f776e65722100000000000000000000000000000000000081525060200191505060405180910390fd5b60008290506001819080600181540180825580915050600190039060005260206000200160009091909190916101000a81548173ffffffffffffffffffffffffffffffffffffffff021916908373ffffffffffffffffffffffffffffffffffffffff1602179055506004600190806001815401808255809150506001900390600052602060002090602091828204019190069091909190916101000a81548160ff0219169083151502179055506000600180805490500390507f54440a43c9b4c7e5c5755bdf2d640c903a6949e2dad6fb7770b5599ea4f6d1278482604051808373ffffffffffffffffffffffffffffffffffffffff1681526020018281526020019250505060405180910390a18092505050919050565b6003818154811061053e57fe5b906000526020600020016000915054906101000a900473ffffffffffffffffffffffffffffffffffffffff1681565b60006004838154811061057c57fe5b90600052602060002090602091828204019190069054906101000a900460ff166105f1576040517f08c379a0000000000000000000000000000000000000000000000000000000008152600401808060200182810382526027815260200180610c596027913960400191505060405180910390fd5b600073ffffffffffffffffffffffffffffffffffffffff16600260003373ffffffffffffffffffffffffffffffffffffffff1673ffffffffffffffffffffffffffffffffffffffff16815260200190815260200160002060009054906101000a900473ffffffffffffffffffffffffffffffffffffffff1673ffffffffffffffffffffffffffffffffffffffff16146106d5576040517f08c379a0000000000000000000000000000000000000000000000000000000008152600401808060200182810382526028815260200180610c316028913960400191505060405180910390fd5b6000600184815481106106e457fe5b9060005260206000200160009054906101000a900473ffffffffffffffffffffffffffffffffffffffff1673ffffffffffffffffffffffffffffffffffffffff16635ced316633856040518363ffffffff1660e01b8152600401808373ffffffffffffffffffffffffffffffffffffffff16815260200182815260200192505050602060405180830381600087803b15801561077f57600080fd5b505af1158015610793573d6000803e3d6000fd5b505050506040513d60208110156107a957600080fd5b8101908080519060200190929190505050905080600260003373ffffffffffffffffffffffffffffffffffffffff1673ffffffffffffffffffffffffffffffffffffffff16815260200190815260200160002060006101000a81548173ffffffffffffffffffffffffffffffffffffffff021916908373ffffffffffffffffffffffffffffffffffffffff1602179055506003339080600181540180825580915050600190039060005260206000200160009091909190916101000a81548173ffffffffffffffffffffffffffffffffffffffff021916908373ffffffffffffffffffffffffffffffffffffffff1602179055503373ffffffffffffffffffffffffffffffffffffffff167f693a944cb01572a0441324e4d5bea42803a4c51786b9e31ccd2719c6ba35fb3f8585604051808381526020018281526020019250505060405180910390a28091505092915050565b60008054906101000a900473ffffffffffffffffffffffffffffffffffffffff1681565b6000600380549050905090565b600260003373ffffffffffffffffffffffffffffffffffffffff1673ffffffffffffffffffffffffffffffffffffffff16815260200190815260200160002060009054906101000a900473ffffffffffffffffffffffffffffffffffffffff1673ffffffffffffffffffffffffffffffffffffffff166383197ef06040518163ffffffff1660e01b8152600401600060405180830381600087803b1580156109d557600080fd5b505af11580156109e9573d6000803e3d6000fd5b50505050600260003373ffffffffffffffffffffffffffffffffffffffff1673ffffffffffffffffffffffffffffffffffffffff16815260200190815260200160002060006101000a81549073ffffffffffffffffffffffffffffffffffffffff02191690553373ffffffffffffffffffffffffffffffffffffffff167fe7f1400f46d4a6013c1f7719189567e1679a57db059c342976ec5ea9f381ac5d60405160405180910390a2565b60048181548110610aa157fe5b9060005260206000209060209182820401919006915054906101000a900460ff1681565b60008054906101000a900473ffffffffffffffffffffffffffffffffffffffff1673ffffffffffffffffffffffffffffffffffffffff163373ffffffffffffffffffffffffffffffffffffffff1614610b86576040517f08c379a000000000000000000000000000000000000000000000000000000000815260040180806020018281038252600e8152602001807f4d757374206265206f776e65722100000000000000000000000000000000000081525060200191505060405180910390fd5b8060048381548110610b9457fe5b90600052602060002090602091828204019190066101000a81548160ff0219169083151502179055505050565b60026020528060005260406000206000915054906101000a900473ffffffffffffffffffffffffffffffffffffffff1681565b60018181548110610c0157fe5b906000526020600020016000915054906101000a900473ffffffffffffffffffffffffffffffffffffffff168156fe46616361646520616c7265616479206372656174656420666f72207468697320616464726573732e5468697320696e746567726174696f6e2069732063757272656e746c792064697361626c65642ea26469706673582212202e5ed1572ab8e6c80c8a405a2b32745d5cce499a2638161b0cc5892f6de4ae9764736f6c63430007010033",
  "immutableReferences": {},
  "source": "// SPDX-License-Identifier: MIT\npragma solidity ^0.7.0;\n\nimport './Integrations/Integration.sol';\n\n/// @title An interface that helps generate Facades on top of DeFi protocols\n/// @author Joel Reis\n/// @notice Use this contract to create accounts that work directly with common DeFi protocols, like Compound\n/// @dev This is a simple interface that abstracts most of the complexities of the underlying `Integrations` that handle actual deploymnets.\ncontract Generator {\n    \n    /// @notice The owner of this contract\n    /// @dev The owner of this contract, set from deployer and unchangable\n    /// @return The address with the most authority on this contract\n    address public owner;\n    \n    /// @notice The available protocols that are available to create facades from\n    /// @dev Provide the index desired, and this returns a specific `Integration`\n    /// @return A specific `Integration`, given a provided index\n    Integration[] public availableProtocols;\n    \n    /// TODO Improvement: Eventually make this an array\n    /// @notice Provides a Facade, given a wallet address\n    /// @dev This can be used to lookup any associated facade for an address. Currently mapping is 1:1\n    /// @return A specific facacde for a given address\n    mapping(address => Facade) public facades;\n    \n    /// @notice All user addresses that have facades\n    /// @dev This is an array that contains all addresses that have ever deployed a facade, even if the facade has been destroyed\n    /// @return An address that has deployed a facade\n    address[] public facadeOwners;\n    \n    /// @notice Determines whether a specific facade can be created or not\n    /// @dev This is a circuit-breaker, and is used to track which `Integrations` are currently enabled / disabled\n    /// @return whehter an `Integration` is enabled. The indeces match  exactly with `availableProtocols`\n    bool[] public facadeEnabled;\n    \n    /// @notice Checks to make sure only the contract owner (deployer) can call a specific function\n    /// @dev The contract deployer has certain elevated permissions, which can be checked here.\n    modifier isOwner() {\n        require(msg.sender == owner, \"Must be owner!\");\n        _;\n    }\n\n    /// @notice An event used to communicate that a new protocol `Integration` has been added to the `Generator`\n    /// @dev Logs when a new `Integration` is available for use\n    /// @param integrationAddress The address of the new `Integration`\n    /// @param integrationIndex The index of the new `Integration`\n    event LogNewProtocolAdded(address integrationAddress, uint integrationIndex);\n\n    /// @notice An event used to communicate that a new `Facade` has been deployed\n    /// @dev States an address has now deployed a few `Facade` and provide enough info to perform lookups\n    /// @param creator The address that created a `Facade`\n    /// @param integrationIndex The index of the `Integration` used in the deployment\n    /// @param pairIndex The index of the asset pair used for the deployment\n    event LogFacadeCreated(address indexed creator, uint integrationIndex, uint pairIndex);\n\n    /// @notice An event used to communicate that a `Facade` has been destroyed from this `Generator` interface\n    /// @dev Will fire an event when a `Facade` has been destroyed\n    /// @param destroyer The address that destroyed the `Facade`\n    event LogFacadeDestroyed(address indexed destroyer);\n    \n    /// @notice A simple constructor for deploying a `Generator`\n    /// @dev Only handles setting up the owner from the deploying address\n    constructor() {\n        owner = msg.sender;\n    }\n    \n    /// @notice The `owner` can add a new protocol to be used by the `Generator`\n    /// @dev An `Integration` must be manually deployed, and then the address is provided here to provide a link. This then allows wallets to create facade's against this new `Integration`\n    /// @param newIntegration The address of a deployed `Integration`\n    /// @return The index associated with the new `Integration` address\n    function addNewProtocol(address newIntegration) public isOwner() returns(uint) {\n        Integration integration = Integration(newIntegration);\n        // No real need to prevent duplicate protocols, as this is owner controlled, and no negatives.\n        availableProtocols.push(integration);\n        facadeEnabled.push(true);\n        uint index = availableProtocols.length - 1;\n        emit LogNewProtocolAdded(newIntegration, index);\n        return index;\n    }\n    \n    /// @notice The `owner` can add a new protocol to be used by the `Generator`\n    /// @dev An `Integration` must be manually deployed, and then the address is provided here to provide a link. This then allows wallets to create facade's against this new `Integration`\n    /// @param integrationIndex The index of a specific `Integration` to be deployed\n    /// @param pairIndex The index of the asset pair, on a given `Integration`, that should be used for the deployed `Facade`\n    /// @return The newly deployed `Facade` instance\n    function generateNewFacade(uint integrationIndex, uint pairIndex) public returns(Facade) {\n        require(facadeEnabled[integrationIndex], \"This integration is currently disabled.\");\n        require(facades[msg.sender] == Facade(0), \"Facade already created for this address.\");\n        Facade newFacade = availableProtocols[integrationIndex].deployUserInstance(msg.sender, pairIndex);\n        facades[msg.sender] = newFacade;\n        facadeOwners.push(msg.sender);\n        emit LogFacadeCreated(msg.sender, integrationIndex, pairIndex);\n        return newFacade;\n    }\n\n    /// @notice A function that attempts to destroy a `Facade`.\n    /// @dev This is a public, unprotected function. However, the `Facade` implementation protects against unprotected deletion and will block any unauthorized deletions.\n    function destroyFacade() public {\n        // Can only delete your own facade\n        facades[msg.sender].destroy();\n        // Burning owner\n        delete facades[msg.sender];\n        LogFacadeDestroyed(msg.sender);\n\n        // TODO: Currently leaving the owners array intact to preserve data.\n        //  So if fetching owners in a consuming way, will want to sort out owners with no facades\n        //  A future improvement here would be to create a struct for facades that also includes an array index.\n        //   and then cleanup the array and move items around to clean up empty slots. However, this is certainly \n        //   not needed for a fully functioning solution\n    }\n    \n    /// @notice Enables / Disables a specific facade deployment.\n    /// @dev This only impacts the `Generators` control over deployments. \n    /// @param facadeIndex The index of a specific facade that should have their deployment flag modified\n    /// @param enabled Whether or not the given facade should be deployable or not\n    function setEnabled(uint facadeIndex, bool enabled) public isOwner() {\n        facadeEnabled[facadeIndex] = enabled;\n    }\n    \n    /// @notice The number of owners that have created `Facades`\n    /// @dev Provides the number of owners, which can be used to then query for all deployed `Facades`\n    /// @return The number of facade owners that exist\n    function numberOfOwners() public view returns(uint) {\n        return facadeOwners.length;\n    }\n}\n",
  "sourcePath": "/Users/metroid/Development/Block/Final_Project/contracts/Generator.sol",
  "compiler": {
    "name": "solc",
    "version": "0.7.1+commit.f4a555be.Emscripten.clang"
  },
  "schemaVersion": "3.2.3",
  "updatedAt": "2020-12-14T20:14:58.435Z",
  "networkType": "ethereum",
  "devdoc": {
    "author": "Joel Reis",
    "details": "This is a simple interface that abstracts most of the complexities of the underlying `Integrations` that handle actual deploymnets.",
    "events": {
      "LogFacadeCreated(address,uint256,uint256)": {
        "details": "States an address has now deployed a few `Facade` and provide enough info to perform lookups",
        "params": {
          "creator": "The address that created a `Facade`",
          "integrationIndex": "The index of the `Integration` used in the deployment",
          "pairIndex": "The index of the asset pair used for the deployment"
        }
      },
      "LogFacadeDestroyed(address)": {
        "details": "Will fire an event when a `Facade` has been destroyed",
        "params": {
          "destroyer": "The address that destroyed the `Facade`"
        }
      },
      "LogNewProtocolAdded(address,uint256)": {
        "details": "Logs when a new `Integration` is available for use",
        "params": {
          "integrationAddress": "The address of the new `Integration`",
          "integrationIndex": "The index of the new `Integration`"
        }
      }
    },
    "kind": "dev",
    "methods": {
      "addNewProtocol(address)": {
        "details": "An `Integration` must be manually deployed, and then the address is provided here to provide a link. This then allows wallets to create facade's against this new `Integration`",
        "params": {
          "newIntegration": "The address of a deployed `Integration`"
        },
        "returns": {
          "_0": "The index associated with the new `Integration` address"
        }
      },
      "constructor": {
        "details": "Only handles setting up the owner from the deploying address"
      },
      "destroyFacade()": {
        "details": "This is a public, unprotected function. However, the `Facade` implementation protects against unprotected deletion and will block any unauthorized deletions."
      },
      "generateNewFacade(uint256,uint256)": {
        "details": "An `Integration` must be manually deployed, and then the address is provided here to provide a link. This then allows wallets to create facade's against this new `Integration`",
        "params": {
          "integrationIndex": "The index of a specific `Integration` to be deployed",
          "pairIndex": "The index of the asset pair, on a given `Integration`, that should be used for the deployed `Facade`"
        },
        "returns": {
          "_0": "The newly deployed `Facade` instance"
        }
      },
      "numberOfOwners()": {
        "details": "Provides the number of owners, which can be used to then query for all deployed `Facades`",
        "returns": {
          "_0": "The number of facade owners that exist"
        }
      },
      "setEnabled(uint256,bool)": {
        "details": "This only impacts the `Generators` control over deployments. ",
        "params": {
          "enabled": "Whether or not the given facade should be deployable or not",
          "facadeIndex": "The index of a specific facade that should have their deployment flag modified"
        }
      }
    },
    "stateVariables": {
      "availableProtocols": {
        "details": "Provide the index desired, and this returns a specific `Integration`",
        "return": "A specific `Integration`, given a provided index"
      },
      "facadeEnabled": {
        "details": "This is a circuit-breaker, and is used to track which `Integrations` are currently enabled / disabled",
        "return": "whehter an `Integration` is enabled. The indeces match  exactly with `availableProtocols`"
      },
      "facadeOwners": {
        "details": "This is an array that contains all addresses that have ever deployed a facade, even if the facade has been destroyed",
        "return": "An address that has deployed a facade"
      },
      "facades": {
        "details": "This can be used to lookup any associated facade for an address. Currently mapping is 1:1",
        "return": "A specific facacde for a given address"
      },
      "owner": {
        "details": "The owner of this contract, set from deployer and unchangable",
        "return": "The address with the most authority on this contract"
      }
    },
    "title": "An interface that helps generate Facades on top of DeFi protocols",
    "version": 1
  },
  "userdoc": {
    "events": {
      "LogFacadeCreated(address,uint256,uint256)": {
        "notice": "An event used to communicate that a new `Facade` has been deployed"
      },
      "LogFacadeDestroyed(address)": {
        "notice": "An event used to communicate that a `Facade` has been destroyed from this `Generator` interface"
      },
      "LogNewProtocolAdded(address,uint256)": {
        "notice": "An event used to communicate that a new protocol `Integration` has been added to the `Generator`"
      }
    },
    "kind": "user",
    "methods": {
      "addNewProtocol(address)": {
        "notice": "The `owner` can add a new protocol to be used by the `Generator`"
      },
      "availableProtocols(uint256)": {
        "notice": "The available protocols that are available to create facades from"
      },
      "constructor": {
        "notice": "A simple constructor for deploying a `Generator`"
      },
      "destroyFacade()": {
        "notice": "A function that attempts to destroy a `Facade`."
      },
      "facadeEnabled(uint256)": {
        "notice": "Determines whether a specific facade can be created or not"
      },
      "facadeOwners(uint256)": {
        "notice": "All user addresses that have facades"
      },
      "facades(address)": {
        "notice": "TODO Improvement: Eventually make this an arrayProvides a Facade, given a wallet address"
      },
      "generateNewFacade(uint256,uint256)": {
        "notice": "The `owner` can add a new protocol to be used by the `Generator`"
      },
      "numberOfOwners()": {
        "notice": "The number of owners that have created `Facades`"
      },
      "owner()": {
        "notice": "The owner of this contract"
      },
      "setEnabled(uint256,bool)": {
        "notice": "Enables / Disables a specific facade deployment."
      }
    },
    "notice": "Use this contract to create accounts that work directly with common DeFi protocols, like Compound",
    "version": 1
  }
}